{
  "contractName": "VehicleManager",
  "abi": [
    {
      "constant": false,
      "inputs": [
        {
          "name": "_vin",
          "type": "bytes32"
        },
        {
          "name": "_voner",
          "type": "string"
        }
      ],
      "name": "transferVehicle",
      "outputs": [
        {
          "name": "",
          "type": "string"
        }
      ],
      "payable": false,
      "stateMutability": "nonpayable",
      "type": "function"
    },
    {
      "constant": true,
      "inputs": [
        {
          "name": "_id",
          "type": "bytes32"
        }
      ],
      "name": "getVehicleOnwer",
      "outputs": [
        {
          "name": "",
          "type": "string"
        }
      ],
      "payable": false,
      "stateMutability": "view",
      "type": "function"
    },
    {
      "constant": true,
      "inputs": [
        {
          "name": "_id",
          "type": "bytes32"
        }
      ],
      "name": "isVehicle",
      "outputs": [
        {
          "name": "",
          "type": "bool"
        }
      ],
      "payable": false,
      "stateMutability": "view",
      "type": "function"
    },
    {
      "constant": false,
      "inputs": [
        {
          "name": "_vin",
          "type": "bytes32"
        },
        {
          "name": "_year",
          "type": "string"
        },
        {
          "name": "_model",
          "type": "string"
        },
        {
          "name": "_make",
          "type": "string"
        },
        {
          "name": "_vonwer",
          "type": "string"
        }
      ],
      "name": "registerVehicle",
      "outputs": [],
      "payable": false,
      "stateMutability": "nonpayable",
      "type": "function"
    },
    {
      "inputs": [],
      "payable": false,
      "stateMutability": "nonpayable",
      "type": "constructor"
    },
    {
      "anonymous": false,
      "inputs": [
        {
          "indexed": false,
          "name": "_vin",
          "type": "bytes32"
        },
        {
          "indexed": false,
          "name": "vowner",
          "type": "string"
        }
      ],
      "name": "NewVehicle",
      "type": "event"
    }
  ],
  "bytecode": "0x6060604052341561000f57600080fd5b336000806101000a81548173ffffffffffffffffffffffffffffffffffffffff021916908373ffffffffffffffffffffffffffffffffffffffff1602179055506108d08061005e6000396000f300606060405260043610610062576000357c0100000000000000000000000000000000000000000000000000000000900463ffffffff1680631bd4fa4b146100675780639ee890431461014a578063d2e5aeee146101ea578063d4e9a48114610229575b600080fd5b341561007257600080fd5b6100cf60048080356000191690602001909190803590602001908201803590602001908080601f0160208091040260200160405190810160405280939291908181526020018383808284378201915050505050509190505061035c565b6040518080602001828103825283818151815260200191508051906020019080838360005b8381101561010f5780820151818401526020810190506100f4565b50505050905090810190601f16801561013c5780820380516001836020036101000a031916815260200191505b509250505060405180910390f35b341561015557600080fd5b61016f600480803560001916906020019091905050610449565b6040518080602001828103825283818151815260200191508051906020019080838360005b838110156101af578082015181840152602081019050610194565b50505050905090810190601f1680156101dc5780820380516001836020036101000a031916815260200191505b509250505060405180910390f35b34156101f557600080fd5b61020f600480803560001916906020019091905050610529565b604051808215151515815260200191505060405180910390f35b341561023457600080fd5b61035a60048080356000191690602001909190803590602001908201803590602001908080601f0160208091040260200160405190810160405280939291908181526020018383808284378201915050505050509190803590602001908201803590602001908080601f0160208091040260200160405190810160405280939291908181526020018383808284378201915050505050509190803590602001908201803590602001908080601f0160208091040260200160405190810160405280939291908181526020018383808284378201915050505050509190803590602001908201803590602001908080601f01602080910402602001604051908101604052809392919081815260200183838082843782019150505050505091905050610575565b005b61036461071a565b338073ffffffffffffffffffffffffffffffffffffffff166000809054906101000a900473ffffffffffffffffffffffffffffffffffffffff1673ffffffffffffffffffffffffffffffffffffffff161415156103c057610442565b6103c984610529565b15156103d457600080fd5b82600260008660001916600019168152602001908152602001600020600401908051906020019061040692919061072e565b506002806000866000191660001916815260200190815260200160002060050160006101000a81548160ff021916908360000b60ff1602179055505b5092915050565b61045161071a565b600061045c83610529565b151561046757600080fd5b6002600084600019166000191681526020019081526020016000206004019050808054600181600116156101000203166002900480601f01602080910402602001604051908101604052809291908181526020018280546001816001161561010002031660029004801561051c5780601f106104f15761010080835404028352916020019161051c565b820191906000526020600020905b8154815290600101906020018083116104ff57829003601f168201915b5050505050915050919050565b60008060026000846000191660001916815260200190815260200160002060050160009054906101000a900460000b60000b14151561056b5760019050610570565b600090505b919050565b338073ffffffffffffffffffffffffffffffffffffffff166000809054906101000a900473ffffffffffffffffffffffffffffffffffffffff1673ffffffffffffffffffffffffffffffffffffffff161415156105d157610712565b6105da86610529565b1515156105e657600080fd5b600180548060010182816105fa91906107ae565b91600052602060002090016000889091909150906000191690555060c06040519081016040528087600019168152602001868152602001858152602001848152602001838152602001600160000b8152506002600088600019166000191681526020019081526020016000206000820151816000019060001916905560208201518160010190805190602001906106929291906107da565b5060408201518160020190805190602001906106af9291906107da565b5060608201518160030190805190602001906106cc9291906107da565b5060808201518160040190805190602001906106e99291906107da565b5060a08201518160050160006101000a81548160ff021916908360000b60ff1602179055509050505b505050505050565b602060405190810160405280600081525090565b828054600181600116156101000203166002900490600052602060002090601f016020900481019282601f1061076f57805160ff191683800117855561079d565b8280016001018555821561079d579182015b8281111561079c578251825591602001919060010190610781565b5b5090506107aa919061085a565b5090565b8154818355818115116107d5578183600052602060002091820191016107d4919061087f565b5b505050565b828054600181600116156101000203166002900490600052602060002090601f016020900481019282601f1061081b57805160ff1916838001178555610849565b82800160010185558215610849579182015b8281111561084857825182559160200191906001019061082d565b5b509050610856919061085a565b5090565b61087c91905b80821115610878576000816000905550600101610860565b5090565b90565b6108a191905b8082111561089d576000816000905550600101610885565b5090565b905600a165627a7a72305820fc9453bb972fe5db1b4aa528a47ada40895190fde7d46e99f839bb7e3a1ac4380029",
  "source": "pragma solidity ^0.4.15;\ncontract VehicleManager  {\n\n    \taddress owner;\n        bytes32[]  vins;\n        mapping(bytes32 => Vehicle) vehicleMap;\n\n        function VehicleManager(){\n            owner = msg.sender;\n        }\n\n        event NewVehicle(bytes32 _vin,string vowner);\n\n    \tstruct Vehicle {\n\t\t    bytes32 vin;\n\t\t    string year;\n\t\t    string model;\n\t\t    string make;\n\t\t    string vehicleOwner;\n\t    \tint8 status;  //  0 not exist, 1 created, 2 transferred...\n\n\t    }\n        modifier isOnwer(address sender) {\n            if(owner != sender) {\n                revert;\n            }else{\n                _;\n            }\n        }\n\n        function registerVehicle(bytes32 _vin,string _year,string _model,string _make,string _vonwer) isOnwer(msg.sender) public{\n\n            require(!isVehicle(_vin));\n            vins.push(_vin);\n            vehicleMap[_vin] = Vehicle(_vin,_year,_model, _make,_vonwer, 1);\n        }\n\n        function isVehicle(bytes32 _id) public constant returns(bool) {\n\t\tif (vehicleMap[_id].status != 0) {\n\t\t\treturn true;\n\t\t    }\n\n\t        return false;\n\t    }\n\n\n\t    function transferVehicle(bytes32 _vin,string _voner) public isOnwer(msg.sender) returns(string)  {\n\t        require(isVehicle(_vin));\n            vehicleMap[_vin].vehicleOwner = _voner;\n            vehicleMap[_vin].status = 2;\n\n\n\t    }\n\t    function getVehicleOnwer(bytes32 _id) public constant returns(string){\n\t        require(isVehicle(_id));\n\t        string storage name= vehicleMap[_id].vehicleOwner;\n\t        return name;\n\t    }\n\n\t    /**\n\t    function serviceHistory(bytes32 _id) public returns (string[]){\n\t        // to be implemented\n\t    }\n        **/\n}\n",
  "sourcePath": "/Users/pritam/blockchain/vehicle-service/contracts/VehicleManager.sol",
  "compiler": {
    "name": "solc",
    "version": "0.4.18+commit.9cf6e910.Emscripten.clang"
  },
  "schemaVersion": "1.0.1",
  "updatedAt": "2018-01-25T08:36:23.766Z"
}